{
  "contractName": "OTC",
  "abi": [
    {
      "inputs": [],
      "name": "totalTrades",
      "outputs": [
        {
          "internalType": "uint256",
          "name": "",
          "type": "uint256"
        }
      ],
      "stateMutability": "view",
      "type": "function",
      "constant": true
    },
    {
      "inputs": [
        {
          "internalType": "uint256",
          "name": "",
          "type": "uint256"
        }
      ],
      "name": "trades",
      "outputs": [
        {
          "internalType": "address",
          "name": "creator",
          "type": "address"
        },
        {
          "internalType": "uint256",
          "name": "giveBalance",
          "type": "uint256"
        },
        {
          "internalType": "contract ERC20",
          "name": "giveToken",
          "type": "address"
        },
        {
          "internalType": "uint256",
          "name": "giveAmount",
          "type": "uint256"
        },
        {
          "internalType": "contract ERC20",
          "name": "wantToken",
          "type": "address"
        },
        {
          "internalType": "uint256",
          "name": "wantAmount",
          "type": "uint256"
        }
      ],
      "stateMutability": "view",
      "type": "function",
      "constant": true
    },
    {
      "inputs": [
        {
          "internalType": "contract ERC20",
          "name": "_giveToken",
          "type": "address"
        },
        {
          "internalType": "uint256",
          "name": "_giveAmount",
          "type": "uint256"
        },
        {
          "internalType": "contract ERC20",
          "name": "_wantToken",
          "type": "address"
        },
        {
          "internalType": "uint256",
          "name": "_wantAmount",
          "type": "uint256"
        }
      ],
      "name": "createTrade",
      "outputs": [],
      "stateMutability": "nonpayable",
      "type": "function"
    },
    {
      "inputs": [
        {
          "internalType": "uint256",
          "name": "tradeID",
          "type": "uint256"
        },
        {
          "internalType": "uint256",
          "name": "fillAmount",
          "type": "uint256"
        }
      ],
      "name": "fillTrade",
      "outputs": [],
      "stateMutability": "nonpayable",
      "type": "function"
    },
    {
      "inputs": [
        {
          "internalType": "uint256",
          "name": "tradeID",
          "type": "uint256"
        }
      ],
      "name": "cancelTrade",
      "outputs": [],
      "stateMutability": "nonpayable",
      "type": "function"
    }
  ],
  "bytecode": "0x608060405234801561001057600080fd5b50610ab6806100206000396000f3fe608060405234801561001057600080fd5b50600436106100575760003560e01c806309ec6cc71461005c5780631e6c598e14610071578063c2f79b791461010c578063e275c9971461011f578063ef14c2b914610136575b600080fd5b61006f61006a3660046109a6565b610149565b005b6100c461007f3660046109a6565b6000602081905290815260409020805460018201546002830154600384015460048501546005909501546001600160a01b039485169593949283169391929091169086565b604080516001600160a01b0397881681526020810196909652938616938501939093526060840191909152909216608082015260a081019190915260c0015b60405180910390f35b61006f61011a3660046109d8565b610288565b61012860015481565b604051908152602001610103565b61006f610144366004610962565b610655565b6000818152602081905260409020546001600160a01b031633146101a65760405162461bcd60e51b815260206004820152600f60248201526e2737ba103a3930b2329037bbb732b960891b60448201526064015b60405180910390fd5b600081815260208190526040908190206002810154600190910154915163a9059cbb60e01b815233600482015260248101929092526001600160a01b03169063a9059cbb90604401602060405180830381600087803b15801561020857600080fd5b505af115801561021c573d6000803e3d6000fd5b505050506040513d601f19601f820116820180604052508101906102409190610939565b50600090815260208190526040812080546001600160a01b03199081168255600182018390556002820180548216905560038201839055600482018054909116905560050155565b6000828152602081905260409081902060049081015491516370a0823160e01b8152339181019190915282916001600160a01b0316906370a082319060240160206040518083038186803b1580156102df57600080fd5b505afa1580156102f3573d6000803e3d6000fd5b505050506040513d601f19601f8201168201806040525081019061031791906109bf565b101561035c5760405162461bcd60e51b8152602060048201526014602482015273496e73756666696369656e742062616c616e636560601b604482015260640161019d565b600082815260208190526040908190206004908101549151636eb1769f60e11b8152339181019190915230602482015282916001600160a01b03169063dd62ed3e9060440160206040518083038186803b1580156103b957600080fd5b505afa1580156103cd573d6000803e3d6000fd5b505050506040513d601f19601f820116820180604052508101906103f191906109bf565b10156104385760405162461bcd60e51b8152602060048201526016602482015275496e73756666696369656e7420616c6c6f77616e636560501b604482015260640161019d565b60008281526020819052604090206001015481111561046557506000818152602081905260409020600101545b60008281526020819052604081206001018054839290610486908490610a53565b909155505060008281526020819052604090819020600480820154915492516323b872dd60e01b815233918101919091526001600160a01b039283166024820152604481018490529116906323b872dd90606401602060405180830381600087803b1580156104f457600080fd5b505af1158015610508573d6000803e3d6000fd5b505050506040513d601f19601f8201168201806040525081019061052c9190610939565b50600082815260208190526040902060028101546005909101546001600160a01b039091169063a9059cbb90339061056c85670de0b6b3a7640000610a34565b6105769190610a12565b6040516001600160e01b031960e085901b1681526001600160a01b0390921660048301526024820152604401602060405180830381600087803b1580156105bc57600080fd5b505af11580156105d0573d6000803e3d6000fd5b505050506040513d601f19601f820116820180604052508101906105f49190610939565b5060008281526020819052604090206001015461065157600082815260208190526040812080546001600160a01b031990811682556001820183905560028201805482169055600382018390556004820180549091169055600501555b5050565b6040516370a0823160e01b815233600482015283906001600160a01b038616906370a082319060240160206040518083038186803b15801561069657600080fd5b505afa1580156106aa573d6000803e3d6000fd5b505050506040513d601f19601f820116820180604052508101906106ce91906109bf565b10156107135760405162461bcd60e51b8152602060048201526014602482015273496e73756666696369656e742062616c616e636560601b604482015260640161019d565b604051636eb1769f60e11b815233600482015230602482015283906001600160a01b0386169063dd62ed3e9060440160206040518083038186803b15801561075a57600080fd5b505afa15801561076e573d6000803e3d6000fd5b505050506040513d601f19601f8201168201806040525081019061079291906109bf565b10156107d95760405162461bcd60e51b8152602060048201526016602482015275496e73756666696369656e7420616c6c6f77616e636560501b604482015260640161019d565b6040516323b872dd60e01b8152336004820152306024820152604481018490526001600160a01b038516906323b872dd90606401602060405180830381600087803b15801561082757600080fd5b505af115801561083b573d6000803e3d6000fd5b505050506040513d601f19601f8201168201806040525081019061085f9190610939565b506040805160c08101825233815260208082018681526001600160a01b03888116848601908152606085018981528883166080870190815260a0870189815260018054600090815297889052988720975188549086166001600160a01b03199182161789559551888a0155925160028801805491861691871691909117905590516003870155516004860180549190931693169290921790555160059092019190915581548291906109129083906109fa565b909155505050505050565b80356001600160a01b038116811461093457600080fd5b919050565b60006020828403121561094b57600080fd5b8151801515811461095b57600080fd5b9392505050565b6000806000806080858703121561097857600080fd5b6109818561091d565b9350602085013592506109966040860161091d565b9396929550929360600135925050565b6000602082840312156109b857600080fd5b5035919050565b6000602082840312156109d157600080fd5b5051919050565b600080604083850312156109eb57600080fd5b50508035926020909101359150565b60008219821115610a0d57610a0d610a6a565b500190565b600082610a2f57634e487b7160e01b600052601260045260246000fd5b500490565b6000816000190483118215151615610a4e57610a4e610a6a565b500290565b600082821015610a6557610a65610a6a565b500390565b634e487b7160e01b600052601160045260246000fdfea2646970667358221220ec7bd539343a4df6139e1b937fae5915c0414fa192f2eac7b7f304795e7e73fb64736f6c63430008070033",
  "immutableReferences": {},
  "source": "// SPDX-License-Identifier: MIT\npragma solidity ^0.8.0;\n\nimport \"@openzeppelin/contracts/token/ERC20/ERC20.sol\";\n\ncontract OTC {\n\n    struct Trade {\n        address creator;\n        uint256 giveBalance;\n    \n        ERC20 giveToken;\n        uint256 giveAmount;\n        \n        ERC20 wantToken;\n        uint256 wantAmount;\n    }\n\n    mapping(uint256 => Trade) public trades;\n    uint256 public totalTrades;\n    \n    \n    function createTrade(ERC20 _giveToken, uint256 _giveAmount, ERC20 _wantToken, uint256 _wantAmount) public {\n        require(_giveToken.balanceOf(msg.sender) >= _giveAmount, \"Insufficient balance\");\n        require(_giveToken.allowance(msg.sender, address(this)) >= _giveAmount, \"Insufficient allowance\");\n        _giveToken.transferFrom(msg.sender, address(this), _giveAmount);\n        trades[totalTrades] = Trade(msg.sender, _giveAmount, _giveToken, _giveAmount, _wantToken, _wantAmount);\n        totalTrades += 1;\n    }\n    \n    \n    function fillTrade(uint256 tradeID, uint256 fillAmount) public {\n        require(trades[tradeID].wantToken.balanceOf(msg.sender) >= fillAmount, \"Insufficient balance\");\n        require(trades[tradeID].wantToken.allowance(msg.sender, address(this)) >= fillAmount, \"Insufficient allowance\");\n        if(fillAmount > trades[tradeID].giveBalance) {\n            fillAmount = trades[tradeID].giveBalance;\n        }\n        trades[tradeID].giveBalance -= fillAmount;\n        trades[tradeID].wantToken.transferFrom(msg.sender, trades[tradeID].creator, fillAmount);\n        trades[tradeID].giveToken.transfer(msg.sender, (fillAmount*10**18)/trades[tradeID].wantAmount);\n        if(trades[tradeID].giveBalance == 0){\n            delete trades[tradeID];\n        }\n    }\n    \n    \n    function cancelTrade(uint256 tradeID) public {\n        require(trades[tradeID].creator == msg.sender, \"Not trade owner\");\n        trades[tradeID].giveToken.transfer(msg.sender, trades[tradeID].giveBalance);\n        delete trades[tradeID];\n    }\n}\n\n",
  "sourcePath": "C:\\Users\\yashk\\Documents\\Programming\\Solidity\\OTC\\contracts\\OTC.sol",
  "compiler": {
    "name": "solc",
    "version": "0.8.7+commit.e28d00a7.Emscripten.clang"
  },
  "schemaVersion": "3.4.3",
  "updatedAt": "2021-10-06T08:48:36.331Z",
  "networkType": "ethereum",
  "devdoc": {
    "kind": "dev",
    "methods": {},
    "version": 1
  },
  "userdoc": {
    "kind": "user",
    "methods": {},
    "version": 1
  }
}